{
  "_format": "hh-sol-artifact-1",
  "contractName": "Governance",
  "sourceName": "contracts/core/Governance.sol",
  "abi": [
    {
      "inputs": [
        {
          "internalType": "address",
          "name": "_owner",
          "type": "address"
        },
        {
          "internalType": "address",
          "name": "_manager",
          "type": "address"
        },
        {
          "internalType": "address",
          "name": "_collateral",
          "type": "address"
        },
        {
          "internalType": "address",
          "name": "_feeReceiver",
          "type": "address"
        }
      ],
      "stateMutability": "nonpayable",
      "type": "constructor"
    },
    {
      "anonymous": false,
      "inputs": [
        {
          "indexed": false,
          "internalType": "address",
          "name": "oldManager",
          "type": "address"
        },
        {
          "indexed": false,
          "internalType": "address",
          "name": "newManager",
          "type": "address"
        }
      ],
      "name": "UpdateManager",
      "type": "event"
    },
    {
      "anonymous": false,
      "inputs": [
        {
          "indexed": false,
          "internalType": "address",
          "name": "oldOwner",
          "type": "address"
        },
        {
          "indexed": false,
          "internalType": "address",
          "name": "newOwner",
          "type": "address"
        }
      ],
      "name": "UpdateOwner",
      "type": "event"
    },
    {
      "inputs": [
        {
          "internalType": "address",
          "name": "_collateral",
          "type": "address"
        }
      ],
      "name": "changeCollateral",
      "outputs": [],
      "stateMutability": "nonpayable",
      "type": "function"
    },
    {
      "inputs": [
        {
          "internalType": "address",
          "name": "newFeeReceiver",
          "type": "address"
        },
        {
          "internalType": "uint8",
          "name": "newRate",
          "type": "uint8"
        }
      ],
      "name": "changeFeeInfo",
      "outputs": [],
      "stateMutability": "nonpayable",
      "type": "function"
    },
    {
      "inputs": [
        {
          "internalType": "address",
          "name": "_newManager",
          "type": "address"
        }
      ],
      "name": "changeManager",
      "outputs": [],
      "stateMutability": "nonpayable",
      "type": "function"
    },
    {
      "inputs": [
        {
          "internalType": "uint256",
          "name": "_marketId",
          "type": "uint256"
        },
        {
          "internalType": "address",
          "name": "_collateral",
          "type": "address"
        }
      ],
      "name": "changeMarketCollateral",
      "outputs": [],
      "stateMutability": "nonpayable",
      "type": "function"
    },
    {
      "inputs": [
        {
          "internalType": "address",
          "name": "_newOwner",
          "type": "address"
        }
      ],
      "name": "changeOwner",
      "outputs": [],
      "stateMutability": "nonpayable",
      "type": "function"
    },
    {
      "inputs": [
        {
          "internalType": "address",
          "name": "_simpleFactory",
          "type": "address"
        }
      ],
      "name": "changeSimpleFactory",
      "outputs": [],
      "stateMutability": "nonpayable",
      "type": "function"
    },
    {
      "inputs": [],
      "name": "collateral",
      "outputs": [
        {
          "internalType": "address",
          "name": "",
          "type": "address"
        }
      ],
      "stateMutability": "view",
      "type": "function"
    },
    {
      "inputs": [],
      "name": "getFeeInfo",
      "outputs": [
        {
          "components": [
            {
              "internalType": "address",
              "name": "feeReceiver",
              "type": "address"
            },
            {
              "internalType": "uint8",
              "name": "rate",
              "type": "uint8"
            }
          ],
          "internalType": "struct IGovernance.FeeInfo",
          "name": "",
          "type": "tuple"
        }
      ],
      "stateMutability": "view",
      "type": "function"
    },
    {
      "inputs": [
        {
          "internalType": "uint256",
          "name": "marketId",
          "type": "uint256"
        }
      ],
      "name": "getMarketConfig",
      "outputs": [
        {
          "components": [
            {
              "internalType": "address",
              "name": "waitToken",
              "type": "address"
            },
            {
              "internalType": "address",
              "name": "collateral",
              "type": "address"
            },
            {
              "internalType": "uint256",
              "name": "endTime",
              "type": "uint256"
            }
          ],
          "internalType": "struct IGovernance.MarketConfig",
          "name": "",
          "type": "tuple"
        }
      ],
      "stateMutability": "view",
      "type": "function"
    },
    {
      "inputs": [
        {
          "internalType": "address",
          "name": "user",
          "type": "address"
        }
      ],
      "name": "getUserJoinMarketLength",
      "outputs": [
        {
          "internalType": "uint256",
          "name": "len",
          "type": "uint256"
        }
      ],
      "stateMutability": "view",
      "type": "function"
    },
    {
      "inputs": [
        {
          "internalType": "address",
          "name": "user",
          "type": "address"
        },
        {
          "internalType": "uint256",
          "name": "index",
          "type": "uint256"
        }
      ],
      "name": "indexUserJoinInfoGroup",
      "outputs": [
        {
          "internalType": "uint256",
          "name": "marketId",
          "type": "uint256"
        }
      ],
      "stateMutability": "view",
      "type": "function"
    },
    {
      "inputs": [
        {
          "internalType": "address",
          "name": "user",
          "type": "address"
        },
        {
          "internalType": "uint256",
          "name": "marketId",
          "type": "uint256"
        }
      ],
      "name": "join",
      "outputs": [],
      "stateMutability": "nonpayable",
      "type": "function"
    },
    {
      "inputs": [],
      "name": "manager",
      "outputs": [
        {
          "internalType": "address",
          "name": "",
          "type": "address"
        }
      ],
      "stateMutability": "view",
      "type": "function"
    },
    {
      "inputs": [],
      "name": "owner",
      "outputs": [
        {
          "internalType": "address",
          "name": "",
          "type": "address"
        }
      ],
      "stateMutability": "view",
      "type": "function"
    },
    {
      "inputs": [
        {
          "internalType": "uint256",
          "name": "_marketId",
          "type": "uint256"
        },
        {
          "internalType": "uint256",
          "name": "_endTime",
          "type": "uint256"
        },
        {
          "internalType": "address",
          "name": "_waitToken",
          "type": "address"
        }
      ],
      "name": "setMarketConfig",
      "outputs": [],
      "stateMutability": "nonpayable",
      "type": "function"
    },
    {
      "inputs": [],
      "name": "simpleFactory",
      "outputs": [
        {
          "internalType": "address",
          "name": "",
          "type": "address"
        }
      ],
      "stateMutability": "view",
      "type": "function"
    }
  ],
  "bytecode": "0x60806040523480156200001157600080fd5b50604051620018b6380380620018b6833981810160405281019062000037919062000246565b836000806101000a81548173ffffffffffffffffffffffffffffffffffffffff021916908373ffffffffffffffffffffffffffffffffffffffff16021790555082600160006101000a81548173ffffffffffffffffffffffffffffffffffffffff021916908373ffffffffffffffffffffffffffffffffffffffff16021790555081600260006101000a81548173ffffffffffffffffffffffffffffffffffffffff021916908373ffffffffffffffffffffffffffffffffffffffff16021790555060405180604001604052808273ffffffffffffffffffffffffffffffffffffffff168152602001603260ff16815250600460003073ffffffffffffffffffffffffffffffffffffffff1673ffffffffffffffffffffffffffffffffffffffff16815260200190815260200160002060008201518160000160006101000a81548173ffffffffffffffffffffffffffffffffffffffff021916908373ffffffffffffffffffffffffffffffffffffffff16021790555060208201518160000160146101000a81548160ff021916908360ff16021790555090505050505050620002b8565b600080fd5b600073ffffffffffffffffffffffffffffffffffffffff82169050919050565b60006200020e82620001e1565b9050919050565b620002208162000201565b81146200022c57600080fd5b50565b600081519050620002408162000215565b92915050565b60008060008060808587031215620002635762000262620001dc565b5b600062000273878288016200022f565b945050602062000286878288016200022f565b935050604062000299878288016200022f565b9250506060620002ac878288016200022f565b91505092959194509250565b6115ee80620002c86000396000f3fe608060405234801561001057600080fd5b50600436106100ff5760003560e01c8063888e568b11610097578063a3fbbaae11610066578063a3fbbaae14610298578063a6f9dae1146102b4578063d671a6be146102d0578063d8dfeb45146102ec576100ff565b8063888e568b146102125780638a43e4311461022e5780638da5cb5b1461025e5780638dfcbac31461027c576100ff565b8063481c6a75116100d3578063481c6a751461019e5780634c3ec167146101bc57806354e9c198146101d857806362891d23146101f6576100ff565b806202eab714610104578063062690f8146101225780633b4da69f146101525780633bdd5d811461016e575b600080fd5b61010c61030a565b6040516101199190610ef4565b60405180910390f35b61013c60048036038101906101379190610f80565b6103d4565b6040516101499190610fcf565b60405180910390f35b61016c60048036038101906101679190610f80565b61043a565b005b61018860048036038101906101839190610fea565b610683565b6040516101959190611068565b60405180910390f35b6101a6610766565b6040516101b39190611092565b60405180910390f35b6101d660048036038101906101d191906110ad565b61078c565b005b6101e06107d8565b6040516101ed9190611092565b60405180910390f35b610210600480360381019061020b91906110da565b6107fe565b005b61022c60048036038101906102279190611159565b6108fd565b005b610248600480360381019061024391906110ad565b610a2b565b6040516102559190610fcf565b60405180910390f35b610266610a77565b6040516102739190611092565b60405180910390f35b610296600480360381019061029191906110ad565b610a9b565b005b6102b260048036038101906102ad91906110ad565b610ae7565b005b6102ce60048036038101906102c991906110ad565b610b94565b005b6102ea60048036038101906102e59190611199565b610c3f565b005b6102f4610ca0565b6040516103019190611092565b60405180910390f35b610312610de8565b600460003073ffffffffffffffffffffffffffffffffffffffff1673ffffffffffffffffffffffffffffffffffffffff1681526020019081526020016000206040518060400160405290816000820160009054906101000a900473ffffffffffffffffffffffffffffffffffffffff1673ffffffffffffffffffffffffffffffffffffffff1673ffffffffffffffffffffffffffffffffffffffff1681526020016000820160149054906101000a900460ff1660ff1660ff1681525050905090565b6000600760008473ffffffffffffffffffffffffffffffffffffffff1673ffffffffffffffffffffffffffffffffffffffff1681526020019081526020016000208281548110610427576104266111d9565b5b9060005260206000200154905092915050565b600360009054906101000a900473ffffffffffffffffffffffffffffffffffffffff1673ffffffffffffffffffffffffffffffffffffffff16633ec79193826040518263ffffffff1660e01b81526004016104959190610fcf565b6040805180830381865afa1580156104b1573d6000803e3d6000fd5b505050506040513d601f19601f820116820180604052508101906104d5919061133e565b6000015173ffffffffffffffffffffffffffffffffffffffff163373ffffffffffffffffffffffffffffffffffffffff1614610546576040517f08c379a000000000000000000000000000000000000000000000000000000000815260040161053d906113c8565b60405180910390fd5b60001515600660008473ffffffffffffffffffffffffffffffffffffffff1673ffffffffffffffffffffffffffffffffffffffff168152602001908152602001600020600083815260200190815260200160002060009054906101000a900460ff1615150361067f57600760008373ffffffffffffffffffffffffffffffffffffffff1673ffffffffffffffffffffffffffffffffffffffff1681526020019081526020016000208190806001815401808255809150506001900390600052602060002001600090919091909150556001600660008473ffffffffffffffffffffffffffffffffffffffff1673ffffffffffffffffffffffffffffffffffffffff168152602001908152602001600020600083815260200190815260200160002060006101000a81548160ff0219169083151502179055505b5050565b61068b610e1b565b600560008381526020019081526020016000206040518060600160405290816000820160009054906101000a900473ffffffffffffffffffffffffffffffffffffffff1673ffffffffffffffffffffffffffffffffffffffff1673ffffffffffffffffffffffffffffffffffffffff1681526020016001820160009054906101000a900473ffffffffffffffffffffffffffffffffffffffff1673ffffffffffffffffffffffffffffffffffffffff1673ffffffffffffffffffffffffffffffffffffffff1681526020016002820154815250509050919050565b600160009054906101000a900473ffffffffffffffffffffffffffffffffffffffff1681565b610794610cc6565b80600260006101000a81548173ffffffffffffffffffffffffffffffffffffffff021916908373ffffffffffffffffffffffffffffffffffffffff16021790555050565b600360009054906101000a900473ffffffffffffffffffffffffffffffffffffffff1681565b610806610cc6565b806005600085815260200190815260200160002060000160006101000a81548173ffffffffffffffffffffffffffffffffffffffff021916908373ffffffffffffffffffffffffffffffffffffffff160217905550600260009054906101000a900473ffffffffffffffffffffffffffffffffffffffff166005600085815260200190815260200160002060010160006101000a81548173ffffffffffffffffffffffffffffffffffffffff021916908373ffffffffffffffffffffffffffffffffffffffff16021790555042826108de9190611417565b6005600085815260200190815260200160002060020181905550505050565b610905610d58565b60648160ff161061094b576040517f08c379a000000000000000000000000000000000000000000000000000000000815260040161094290611497565b60405180910390fd5b81600460003073ffffffffffffffffffffffffffffffffffffffff1673ffffffffffffffffffffffffffffffffffffffff16815260200190815260200160002060000160006101000a81548173ffffffffffffffffffffffffffffffffffffffff021916908373ffffffffffffffffffffffffffffffffffffffff16021790555080600460003073ffffffffffffffffffffffffffffffffffffffff1673ffffffffffffffffffffffffffffffffffffffff16815260200190815260200160002060000160146101000a81548160ff021916908360ff1602179055505050565b6000600760008373ffffffffffffffffffffffffffffffffffffffff1673ffffffffffffffffffffffffffffffffffffffff168152602001908152602001600020805490509050919050565b60008054906101000a900473ffffffffffffffffffffffffffffffffffffffff1681565b610aa3610cc6565b80600360006101000a81548173ffffffffffffffffffffffffffffffffffffffff021916908373ffffffffffffffffffffffffffffffffffffffff16021790555050565b610aef610d58565b6000600160009054906101000a900473ffffffffffffffffffffffffffffffffffffffff16905081600160006101000a81548173ffffffffffffffffffffffffffffffffffffffff021916908373ffffffffffffffffffffffffffffffffffffffff1602179055507f198568c5162b4640d231f4b5d029254c71828e21f5e9a0af5224c7a0b73f8ad78183604051610b889291906114b7565b60405180910390a15050565b610b9c610d58565b60008060009054906101000a900473ffffffffffffffffffffffffffffffffffffffff169050816000806101000a81548173ffffffffffffffffffffffffffffffffffffffff021916908373ffffffffffffffffffffffffffffffffffffffff1602179055507fe2c7d1c4da37855e682bde14f17826d185497973b73fba7554daa6da467058d98183604051610c339291906114b7565b60405180910390a15050565b610c47610cc6565b806005600084815260200190815260200160002060010160006101000a81548173ffffffffffffffffffffffffffffffffffffffff021916908373ffffffffffffffffffffffffffffffffffffffff1602179055505050565b600260009054906101000a900473ffffffffffffffffffffffffffffffffffffffff1681565b600160009054906101000a900473ffffffffffffffffffffffffffffffffffffffff1673ffffffffffffffffffffffffffffffffffffffff163373ffffffffffffffffffffffffffffffffffffffff1614610d56576040517f08c379a0000000000000000000000000000000000000000000000000000000008152600401610d4d9061152c565b60405180910390fd5b565b60008054906101000a900473ffffffffffffffffffffffffffffffffffffffff1673ffffffffffffffffffffffffffffffffffffffff163373ffffffffffffffffffffffffffffffffffffffff1614610de6576040517f08c379a0000000000000000000000000000000000000000000000000000000008152600401610ddd90611598565b60405180910390fd5b565b6040518060400160405280600073ffffffffffffffffffffffffffffffffffffffff168152602001600060ff1681525090565b6040518060600160405280600073ffffffffffffffffffffffffffffffffffffffff168152602001600073ffffffffffffffffffffffffffffffffffffffff168152602001600081525090565b600073ffffffffffffffffffffffffffffffffffffffff82169050919050565b6000610e9382610e68565b9050919050565b610ea381610e88565b82525050565b600060ff82169050919050565b610ebf81610ea9565b82525050565b604082016000820151610edb6000850182610e9a565b506020820151610eee6020850182610eb6565b50505050565b6000604082019050610f096000830184610ec5565b92915050565b6000604051905090565b600080fd5b610f2781610e88565b8114610f3257600080fd5b50565b600081359050610f4481610f1e565b92915050565b6000819050919050565b610f5d81610f4a565b8114610f6857600080fd5b50565b600081359050610f7a81610f54565b92915050565b60008060408385031215610f9757610f96610f19565b5b6000610fa585828601610f35565b9250506020610fb685828601610f6b565b9150509250929050565b610fc981610f4a565b82525050565b6000602082019050610fe46000830184610fc0565b92915050565b60006020828403121561100057610fff610f19565b5b600061100e84828501610f6b565b91505092915050565b61102081610f4a565b82525050565b60608201600082015161103c6000850182610e9a565b50602082015161104f6020850182610e9a565b5060408201516110626040850182611017565b50505050565b600060608201905061107d6000830184611026565b92915050565b61108c81610e88565b82525050565b60006020820190506110a76000830184611083565b92915050565b6000602082840312156110c3576110c2610f19565b5b60006110d184828501610f35565b91505092915050565b6000806000606084860312156110f3576110f2610f19565b5b600061110186828701610f6b565b935050602061111286828701610f6b565b925050604061112386828701610f35565b9150509250925092565b61113681610ea9565b811461114157600080fd5b50565b6000813590506111538161112d565b92915050565b600080604083850312156111705761116f610f19565b5b600061117e85828601610f35565b925050602061118f85828601611144565b9150509250929050565b600080604083850312156111b0576111af610f19565b5b60006111be85828601610f6b565b92505060206111cf85828601610f35565b9150509250929050565b7f4e487b7100000000000000000000000000000000000000000000000000000000600052603260045260246000fd5b600080fd5b6000601f19601f8301169050919050565b7f4e487b7100000000000000000000000000000000000000000000000000000000600052604160045260246000fd5b6112568261120d565b810181811067ffffffffffffffff821117156112755761127461121e565b5b80604052505050565b6000611288610f0f565b9050611294828261124d565b919050565b6000815190506112a881610f1e565b92915050565b600067ffffffffffffffff82169050919050565b6112cb816112ae565b81146112d657600080fd5b50565b6000815190506112e8816112c2565b92915050565b60006040828403121561130457611303611208565b5b61130e604061127e565b9050600061131e84828501611299565b6000830152506020611332848285016112d9565b60208301525092915050565b60006040828403121561135457611353610f19565b5b6000611362848285016112ee565b91505092915050565b600082825260208201905092915050565b7f496e76616c6964206d61726b6574000000000000000000000000000000000000600082015250565b60006113b2600e8361136b565b91506113bd8261137c565b602082019050919050565b600060208201905081810360008301526113e1816113a5565b9050919050565b7f4e487b7100000000000000000000000000000000000000000000000000000000600052601160045260246000fd5b600061142282610f4a565b915061142d83610f4a565b9250828201905080821115611445576114446113e8565b5b92915050565b7f496e76616c696420726174650000000000000000000000000000000000000000600082015250565b6000611481600c8361136b565b915061148c8261144b565b602082019050919050565b600060208201905081810360008301526114b081611474565b9050919050565b60006040820190506114cc6000830185611083565b6114d96020830184611083565b9392505050565b7f4e6f6e206d616e61676572000000000000000000000000000000000000000000600082015250565b6000611516600b8361136b565b9150611521826114e0565b602082019050919050565b6000602082019050818103600083015261154581611509565b9050919050565b7f4e6f6e206f776e65720000000000000000000000000000000000000000000000600082015250565b600061158260098361136b565b915061158d8261154c565b602082019050919050565b600060208201905081810360008301526115b181611575565b905091905056fea264697066735822122062978fc1c56b53d1658aa440b630726e4c77393444538445050f68141363161d64736f6c63430008170033",
  "linkReferences": {},
  "deployedLinkReferences": {}
}