{
  "_format": "hh-sol-artifact-1",
  "contractName": "Helper",
  "sourceName": "contracts/helper/Helper.sol",
  "abi": [
    {
      "inputs": [
        {
          "internalType": "address",
          "name": "_governance",
          "type": "address"
        },
        {
          "internalType": "address",
          "name": "_simpleFactory",
          "type": "address"
        }
      ],
      "stateMutability": "nonpayable",
      "type": "constructor"
    },
    {
      "inputs": [
        {
          "internalType": "address",
          "name": "_governance",
          "type": "address"
        },
        {
          "internalType": "address",
          "name": "_simpleFactory",
          "type": "address"
        }
      ],
      "name": "changeConfig",
      "outputs": [],
      "stateMutability": "nonpayable",
      "type": "function"
    },
    {
      "inputs": [
        {
          "internalType": "uint256",
          "name": "marketId",
          "type": "uint256"
        },
        {
          "internalType": "uint256",
          "name": "total",
          "type": "uint256"
        }
      ],
      "name": "getFee",
      "outputs": [
        {
          "internalType": "uint256",
          "name": "_thisFee",
          "type": "uint256"
        }
      ],
      "stateMutability": "view",
      "type": "function"
    },
    {
      "inputs": [],
      "name": "getLastestMarketId",
      "outputs": [
        {
          "internalType": "uint256",
          "name": "",
          "type": "uint256"
        }
      ],
      "stateMutability": "view",
      "type": "function"
    },
    {
      "inputs": [
        {
          "internalType": "uint256",
          "name": "marketId",
          "type": "uint256"
        }
      ],
      "name": "getLastestOrderId",
      "outputs": [
        {
          "internalType": "uint256",
          "name": "",
          "type": "uint256"
        }
      ],
      "stateMutability": "view",
      "type": "function"
    },
    {
      "inputs": [
        {
          "internalType": "uint256",
          "name": "pageIndex",
          "type": "uint256"
        }
      ],
      "name": "getMarketInfo",
      "outputs": [
        {
          "components": [
            {
              "internalType": "address",
              "name": "market",
              "type": "address"
            },
            {
              "internalType": "uint64",
              "name": "createTime",
              "type": "uint64"
            }
          ],
          "internalType": "struct ISimpleFactory.MarketInfo[]",
          "name": "marketInfoGroup",
          "type": "tuple[]"
        },
        {
          "components": [
            {
              "internalType": "address",
              "name": "waitToken",
              "type": "address"
            },
            {
              "internalType": "address",
              "name": "collateral",
              "type": "address"
            },
            {
              "internalType": "uint256",
              "name": "endTime",
              "type": "uint256"
            }
          ],
          "internalType": "struct IGovernance.MarketConfig[]",
          "name": "marketConfigGroup",
          "type": "tuple[]"
        }
      ],
      "stateMutability": "view",
      "type": "function"
    },
    {
      "inputs": [
        {
          "internalType": "uint256",
          "name": "marketId",
          "type": "uint256"
        },
        {
          "internalType": "uint256",
          "name": "pageIndex",
          "type": "uint256"
        }
      ],
      "name": "getMarketOrderInfos",
      "outputs": [
        {
          "components": [
            {
              "internalType": "enum ISimpleMarketCore.OrderType",
              "name": "orderType",
              "type": "uint8"
            },
            {
              "internalType": "enum ISimpleMarketCore.OrderState",
              "name": "state",
              "type": "uint8"
            },
            {
              "internalType": "bytes1",
              "name": "creatorWithdrawState",
              "type": "bytes1"
            },
            {
              "internalType": "bytes1",
              "name": "traderWithdrawState",
              "type": "bytes1"
            },
            {
              "internalType": "address",
              "name": "trader",
              "type": "address"
            },
            {
              "internalType": "address",
              "name": "creator",
              "type": "address"
            },
            {
              "internalType": "uint64",
              "name": "price",
              "type": "uint64"
            },
            {
              "internalType": "uint256",
              "name": "targetTokenAmount",
              "type": "uint256"
            },
            {
              "internalType": "uint256",
              "name": "collateralAmount",
              "type": "uint256"
            },
            {
              "internalType": "uint256",
              "name": "creationTime",
              "type": "uint256"
            }
          ],
          "internalType": "struct ISimpleMarketCore.OrderInfo[]",
          "name": "orderInfoGroup",
          "type": "tuple[]"
        }
      ],
      "stateMutability": "view",
      "type": "function"
    },
    {
      "inputs": [
        {
          "internalType": "uint256",
          "name": "marketId",
          "type": "uint256"
        },
        {
          "internalType": "uint256",
          "name": "orderId",
          "type": "uint256"
        }
      ],
      "name": "getOrderInfo",
      "outputs": [
        {
          "components": [
            {
              "internalType": "enum ISimpleMarketCore.OrderType",
              "name": "orderType",
              "type": "uint8"
            },
            {
              "internalType": "enum ISimpleMarketCore.OrderState",
              "name": "state",
              "type": "uint8"
            },
            {
              "internalType": "bytes1",
              "name": "creatorWithdrawState",
              "type": "bytes1"
            },
            {
              "internalType": "bytes1",
              "name": "traderWithdrawState",
              "type": "bytes1"
            },
            {
              "internalType": "address",
              "name": "trader",
              "type": "address"
            },
            {
              "internalType": "address",
              "name": "creator",
              "type": "address"
            },
            {
              "internalType": "uint64",
              "name": "price",
              "type": "uint64"
            },
            {
              "internalType": "uint256",
              "name": "targetTokenAmount",
              "type": "uint256"
            },
            {
              "internalType": "uint256",
              "name": "collateralAmount",
              "type": "uint256"
            },
            {
              "internalType": "uint256",
              "name": "creationTime",
              "type": "uint256"
            }
          ],
          "internalType": "struct ISimpleMarketCore.OrderInfo",
          "name": "",
          "type": "tuple"
        }
      ],
      "stateMutability": "view",
      "type": "function"
    },
    {
      "inputs": [
        {
          "internalType": "uint256",
          "name": "marketId",
          "type": "uint256"
        },
        {
          "internalType": "uint256",
          "name": "orderId",
          "type": "uint256"
        }
      ],
      "name": "getOrderState",
      "outputs": [
        {
          "internalType": "enum Helper.OrderCurrentState",
          "name": "state",
          "type": "uint8"
        }
      ],
      "stateMutability": "view",
      "type": "function"
    },
    {
      "inputs": [
        {
          "internalType": "uint256",
          "name": "marketId",
          "type": "uint256"
        },
        {
          "internalType": "uint256[]",
          "name": "orderIds",
          "type": "uint256[]"
        }
      ],
      "name": "getOrdersInfo",
      "outputs": [
        {
          "internalType": "enum Helper.OrderCurrentState[]",
          "name": "orderCurrentStateGroup",
          "type": "uint8[]"
        },
        {
          "components": [
            {
              "internalType": "enum ISimpleMarketCore.OrderType",
              "name": "orderType",
              "type": "uint8"
            },
            {
              "internalType": "enum ISimpleMarketCore.OrderState",
              "name": "state",
              "type": "uint8"
            },
            {
              "internalType": "bytes1",
              "name": "creatorWithdrawState",
              "type": "bytes1"
            },
            {
              "internalType": "bytes1",
              "name": "traderWithdrawState",
              "type": "bytes1"
            },
            {
              "internalType": "address",
              "name": "trader",
              "type": "address"
            },
            {
              "internalType": "address",
              "name": "creator",
              "type": "address"
            },
            {
              "internalType": "uint64",
              "name": "price",
              "type": "uint64"
            },
            {
              "internalType": "uint256",
              "name": "targetTokenAmount",
              "type": "uint256"
            },
            {
              "internalType": "uint256",
              "name": "collateralAmount",
              "type": "uint256"
            },
            {
              "internalType": "uint256",
              "name": "creationTime",
              "type": "uint256"
            }
          ],
          "internalType": "struct ISimpleMarketCore.OrderInfo[]",
          "name": "orderInfoGroup",
          "type": "tuple[]"
        }
      ],
      "stateMutability": "view",
      "type": "function"
    },
    {
      "inputs": [
        {
          "internalType": "address",
          "name": "token",
          "type": "address"
        }
      ],
      "name": "getTokenDecimals",
      "outputs": [
        {
          "internalType": "uint8",
          "name": "",
          "type": "uint8"
        }
      ],
      "stateMutability": "view",
      "type": "function"
    },
    {
      "inputs": [
        {
          "internalType": "address",
          "name": "user",
          "type": "address"
        },
        {
          "internalType": "uint256",
          "name": "pageIndex",
          "type": "uint256"
        }
      ],
      "name": "getUserJoinMarkets",
      "outputs": [
        {
          "internalType": "uint256[]",
          "name": "marketIds",
          "type": "uint256[]"
        }
      ],
      "stateMutability": "view",
      "type": "function"
    },
    {
      "inputs": [
        {
          "internalType": "address",
          "name": "token",
          "type": "address"
        },
        {
          "internalType": "address",
          "name": "user",
          "type": "address"
        }
      ],
      "name": "getUserTokenBalance",
      "outputs": [
        {
          "internalType": "uint256",
          "name": "",
          "type": "uint256"
        }
      ],
      "stateMutability": "view",
      "type": "function"
    },
    {
      "inputs": [],
      "name": "governance",
      "outputs": [
        {
          "internalType": "address",
          "name": "",
          "type": "address"
        }
      ],
      "stateMutability": "view",
      "type": "function"
    },
    {
      "inputs": [
        {
          "internalType": "uint256",
          "name": "marketId",
          "type": "uint256"
        },
        {
          "internalType": "address",
          "name": "user",
          "type": "address"
        },
        {
          "internalType": "uint16",
          "name": "pageIndex",
          "type": "uint16"
        }
      ],
      "name": "indexUserBuyIds",
      "outputs": [
        {
          "internalType": "uint256[]",
          "name": "buyIdGroup",
          "type": "uint256[]"
        }
      ],
      "stateMutability": "view",
      "type": "function"
    },
    {
      "inputs": [
        {
          "internalType": "uint256",
          "name": "marketId",
          "type": "uint256"
        },
        {
          "internalType": "address",
          "name": "user",
          "type": "address"
        },
        {
          "internalType": "uint16",
          "name": "pageIndex",
          "type": "uint16"
        }
      ],
      "name": "indexUserSellIds",
      "outputs": [
        {
          "internalType": "uint256[]",
          "name": "sellIdGroup",
          "type": "uint256[]"
        }
      ],
      "stateMutability": "view",
      "type": "function"
    },
    {
      "inputs": [],
      "name": "owner",
      "outputs": [
        {
          "internalType": "address",
          "name": "",
          "type": "address"
        }
      ],
      "stateMutability": "view",
      "type": "function"
    },
    {
      "inputs": [],
      "name": "simpleFactory",
      "outputs": [
        {
          "internalType": "address",
          "name": "",
          "type": "address"
        }
      ],
      "stateMutability": "view",
      "type": "function"
    }
  ],
  "bytecode": "0x60c0604052600160f81b7effffffffffffffffffffffffffffffffffffffffffffffffffffffffffffff191660a0907effffffffffffffffffffffffffffffffffffffffffffffffffffffffffffff19168152503480156200006057600080fd5b50604051620030e6380380620030e68339818101604052810190620000869190620001ba565b816000806101000a81548173ffffffffffffffffffffffffffffffffffffffff021916908373ffffffffffffffffffffffffffffffffffffffff16021790555080600160006101000a81548173ffffffffffffffffffffffffffffffffffffffff021916908373ffffffffffffffffffffffffffffffffffffffff16021790555033600260006101000a81548173ffffffffffffffffffffffffffffffffffffffff021916908373ffffffffffffffffffffffffffffffffffffffff160217905550505062000201565b600080fd5b600073ffffffffffffffffffffffffffffffffffffffff82169050919050565b6000620001828262000155565b9050919050565b620001948162000175565b8114620001a057600080fd5b50565b600081519050620001b48162000189565b92915050565b60008060408385031215620001d457620001d362000150565b5b6000620001e485828601620001a3565b9250506020620001f785828601620001a3565b9150509250929050565b60805160a051612ec5620002216000396000505060005050612ec56000f3fe608060405234801561001057600080fd5b506004361061010b5760003560e01c80638da5cb5b116100a2578063c1f5780b11610071578063c1f5780b146102f5578063d08c256a14610325578063d250185c14610355578063d95d9d3c14610385578063dc21c26f146103b65761010b565b80638da5cb5b1461025b5780639a96591614610279578063a915aff6146102a9578063afe31b99146102d95761010b565b80635aa6e675116100de5780635aa6e675146101bf57806373f8fd4b146101dd578063785c7cf61461020d578063800693e71461023d5761010b565b8063034620a7146101105780633ec791931461014057806354e9c1981461017157806355a3ccfc1461018f575b600080fd5b61012a60048036038101906101259190611bcf565b6103e6565b6040516101379190611ce0565b60405180910390f35b61015a60048036038101906101559190611d02565b6105c9565b604051610168929190611f30565b60405180910390f35b6101796108d0565b6040516101869190611f76565b60405180910390f35b6101a960048036038101906101a49190611f91565b6108f6565b6040516101b69190611ce0565b60405180910390f35b6101c7610b79565b6040516101d49190611f76565b60405180910390f35b6101f760048036038101906101f29190611fd1565b610b9d565b6040516102049190612020565b60405180910390f35b6102276004803603810190610222919061203b565b610c21565b6040516102349190612084565b60405180910390f35b610245610c99565b6040516102529190612020565b60405180910390f35b610263610d31565b6040516102709190611f76565b60405180910390f35b610293600480360381019061028e919061209f565b610d57565b6040516102a09190612156565b60405180910390f35b6102c360048036038101906102be9190611d02565b610f5f565b6040516102d09190612020565b60405180910390f35b6102f360048036038101906102ee9190611fd1565b610fe4565b005b61030f600480360381019061030a9190611bcf565b6110f9565b60405161031c9190611ce0565b60405180910390f35b61033f600480360381019061033a919061209f565b6112dc565b60405161034c9190612308565b60405180910390f35b61036f600480360381019061036a919061209f565b611375565b60405161037c9190612020565b60405180910390f35b61039f600480360381019061039a9190612389565b611439565b6040516103ad929190612623565b60405180910390f35b6103d060048036038101906103cb919061209f565b6115b0565b6040516103dd919061265a565b60405180910390f35b606060008060006103f687611719565b905060008173ffffffffffffffffffffffffffffffffffffffff1663a7f698f0886040518263ffffffff1660e01b81526004016104339190611f76565b602060405180830381865afa158015610450573d6000803e3d6000fd5b505050506040513d601f19601f820116820180604052508101906104749190612691565b9050600a81610483919061271c565b8661ffff1611156104c9576040517f08c379a00000000000000000000000000000000000000000000000000000000081526004016104c0906127aa565b60405180910390fd5b600081111561053257600a81116104e257809350610531565b6000600a826104f191906127ca565b036104ff57600a935061050f565b600a8161050c91906127ca565b93505b60008661ffff16111561053057600a8661052991906127fb565b61ffff1692505b5b5b8367ffffffffffffffff81111561054c5761054b612838565b5b60405190808252806020026020018201604052801561057a5781602001602082028036833780820191505090505b50945060005b848110156105bd578386828151811061059c5761059b612867565b5b60200260200101818152505083806001019450508080600101915050610580565b50505050509392505050565b60608060006105d6610c99565b905060008111156108ca57600a816105ee919061271c565b841115610630576040517f08c379a0000000000000000000000000000000000000000000000000000000008152600401610627906127aa565b60405180910390fd5b600080600a831161064357829150610689565b6000600a8461065291906127ca565b0361066057600a9150610670565b600a8361066d91906127ca565b91505b6000861461068857600a866106859190612896565b90505b5b8167ffffffffffffffff8111156106a3576106a2612838565b5b6040519080825280602002602001820160405280156106dc57816020015b6106c9611975565b8152602001906001900390816106c15790505b5094508167ffffffffffffffff8111156106f9576106f8612838565b5b60405190808252806020026020018201604052801561073257816020015b61071f6119af565b8152602001906001900390816107175790505b50935060005b828110156108c657600160009054906101000a900473ffffffffffffffffffffffffffffffffffffffff1673ffffffffffffffffffffffffffffffffffffffff16633ec79193836040518263ffffffff1660e01b815260040161079b9190612020565b6040805180830381865afa1580156107b7573d6000803e3d6000fd5b505050506040513d601f19601f820116820180604052508101906107db91906129cb565b8682815181106107ee576107ed612867565b5b602002602001018190525060008054906101000a900473ffffffffffffffffffffffffffffffffffffffff1673ffffffffffffffffffffffffffffffffffffffff16633bdd5d81836040518263ffffffff1660e01b81526004016108529190612020565b606060405180830381865afa15801561086f573d6000803e3d6000fd5b505050506040513d601f19601f820116820180604052508101906108939190612a5c565b8582815181106108a6576108a5612867565b5b602002602001018190525081806001019250508080600101915050610738565b5050505b50915091565b600160009054906101000a900473ffffffffffffffffffffffffffffffffffffffff1681565b606060008060009054906101000a900473ffffffffffffffffffffffffffffffffffffffff1673ffffffffffffffffffffffffffffffffffffffff16638a43e431856040518263ffffffff1660e01b81526004016109549190611f76565b602060405180830381865afa158015610971573d6000803e3d6000fd5b505050506040513d601f19601f820116820180604052508101906109959190612691565b90506000811115610b7257600a816109ad919061271c565b8311156109ef576040517f08c379a00000000000000000000000000000000000000000000000000000000081526004016109e6906127aa565b60405180910390fd5b600080600a8311610a0257829150610a48565b6000600a84610a1191906127ca565b03610a1f57600a9150610a2f565b600a83610a2c91906127ca565b91505b60008514610a4757600a85610a449190612896565b90505b5b8167ffffffffffffffff811115610a6257610a61612838565b5b604051908082528060200260200182016040528015610a905781602001602082028036833780820191505090505b50935060005b82811015610b6e5760008054906101000a900473ffffffffffffffffffffffffffffffffffffffff1673ffffffffffffffffffffffffffffffffffffffff1663062690f888846040518363ffffffff1660e01b8152600401610af9929190612a89565b602060405180830381865afa158015610b16573d6000803e3d6000fd5b505050506040513d601f19601f82011682018060405250810190610b3a9190612691565b858281518110610b4d57610b4c612867565b5b60200260200101818152505081806001019250508080600101915050610a96565b5050505b5092915050565b60008054906101000a900473ffffffffffffffffffffffffffffffffffffffff1681565b60008273ffffffffffffffffffffffffffffffffffffffff166370a08231836040518263ffffffff1660e01b8152600401610bd89190611f76565b602060405180830381865afa158015610bf5573d6000803e3d6000fd5b505050506040513d601f19601f82011682018060405250810190610c199190612691565b905092915050565b60008173ffffffffffffffffffffffffffffffffffffffff1663313ce5676040518163ffffffff1660e01b8152600401602060405180830381865afa158015610c6e573d6000803e3d6000fd5b505050506040513d601f19601f82011682018060405250810190610c929190612ade565b9050919050565b6000600160009054906101000a900473ffffffffffffffffffffffffffffffffffffffff1673ffffffffffffffffffffffffffffffffffffffff16636ed71ede6040518163ffffffff1660e01b8152600401602060405180830381865afa158015610d08573d6000803e3d6000fd5b505050506040513d601f19601f82011682018060405250810190610d2c9190612691565b905090565b600260009054906101000a900473ffffffffffffffffffffffffffffffffffffffff1681565b600080610d6484846112dc565b90506000610d71856117c1565b90506000811480610d825750804211155b15610e715760016005811115610d9b57610d9a6120df565b5b82602001516005811115610db257610db16120df565b5b1480610de6575060026005811115610dcd57610dcc6120df565b5b82602001516005811115610de457610de36120df565b5b145b15610df45760019250610e6c565b60036005811115610e0857610e076120df565b5b82602001516005811115610e1f57610e1e6120df565b5b03610e2d5760029250610e6b565b600580811115610e4057610e3f6120df565b5b82602001516005811115610e5757610e566120df565b5b03610e655760059250610e6a565b600092505b5b5b610f57565b60016005811115610e8557610e846120df565b5b82602001516005811115610e9c57610e9b6120df565b5b1480610ed0575060026005811115610eb757610eb66120df565b5b82602001516005811115610ece57610ecd6120df565b5b145b15610ede5760039250610f56565b60036005811115610ef257610ef16120df565b5b82602001516005811115610f0957610f086120df565b5b03610f175760049250610f55565b600580811115610f2a57610f296120df565b5b82602001516005811115610f4157610f406120df565b5b03610f4f5760059250610f54565b600092505b5b5b5b505092915050565b600080610f6b83611719565b90508073ffffffffffffffffffffffffffffffffffffffff1663163de5e56040518163ffffffff1660e01b8152600401602060405180830381865afa158015610fb8573d6000803e3d6000fd5b505050506040513d601f19601f82011682018060405250810190610fdc9190612691565b915050919050565b600260009054906101000a900473ffffffffffffffffffffffffffffffffffffffff1673ffffffffffffffffffffffffffffffffffffffff163373ffffffffffffffffffffffffffffffffffffffff1614611074576040517f08c379a000000000000000000000000000000000000000000000000000000000815260040161106b90612b57565b60405180910390fd5b816000806101000a81548173ffffffffffffffffffffffffffffffffffffffff021916908373ffffffffffffffffffffffffffffffffffffffff16021790555080600160006101000a81548173ffffffffffffffffffffffffffffffffffffffff021916908373ffffffffffffffffffffffffffffffffffffffff1602179055505050565b6060600080600061110987611719565b905060008173ffffffffffffffffffffffffffffffffffffffff1663664375a1886040518263ffffffff1660e01b81526004016111469190611f76565b602060405180830381865afa158015611163573d6000803e3d6000fd5b505050506040513d601f19601f820116820180604052508101906111879190612691565b9050600a81611196919061271c565b8661ffff1611156111dc576040517f08c379a00000000000000000000000000000000000000000000000000000000081526004016111d3906127aa565b60405180910390fd5b60008111156112d157600a81116111f557809350611244565b6000600a8261120491906127ca565b0361121257600a9350611222565b600a8161121f91906127ca565b93505b60008661ffff16111561124357600a8661123c91906127fb565b61ffff1692505b5b8367ffffffffffffffff81111561125e5761125d612838565b5b60405190808252806020026020018201604052801561128c5781602001602082028036833780820191505090505b50945060005b848110156112cf57838682815181106112ae576112ad612867565b5b60200260200101818152505083806001019450508080600101915050611292565b505b505050509392505050565b6112e46119fc565b60006112ef84611719565b90508073ffffffffffffffffffffffffffffffffffffffff1663d311636b846040518263ffffffff1660e01b815260040161132a9190612020565b61014060405180830381865afa158015611348573d6000803e3d6000fd5b505050506040513d601f19601f8201168201806040525081019061136c9190612ce3565b91505092915050565b60008060008054906101000a900473ffffffffffffffffffffffffffffffffffffffff1673ffffffffffffffffffffffffffffffffffffffff16633bdd5d81856040518263ffffffff1660e01b81526004016113d19190612020565b606060405180830381865afa1580156113ee573d6000803e3d6000fd5b505050506040513d601f19601f820116820180604052508101906114129190612a5c565b602001519050600061142382610c21565b905061142f8482611869565b9250505092915050565b60608060008484905090508067ffffffffffffffff81111561145e5761145d612838565b5b60405190808252806020026020018201604052801561149757816020015b6114846119fc565b81526020019060019003908161147c5790505b5091508067ffffffffffffffff8111156114b4576114b3612838565b5b6040519080825280602002602001820160405280156114e25781602001602082028036833780820191505090505b50925060005b818110156115a6576115138787878481811061150757611506612867565b5b90506020020135610d57565b84828151811061152657611525612867565b5b602002602001019060058111156115405761153f6120df565b5b90816005811115611554576115536120df565b5b8152505061157b8787878481811061156f5761156e612867565b5b905060200201356112dc565b83828151811061158e5761158d612867565b5b602002602001018190525080806001019150506114e8565b5050935093915050565b606060006115bd84610f5f565b9050600081111561171257600a816115d5919061271c565b831115611617576040517f08c379a000000000000000000000000000000000000000000000000000000000815260040161160e906127aa565b60405180910390fd5b600080600a831161162a57829150611670565b6000600a8461163991906127ca565b0361164757600a9150611657565b600a8361165491906127ca565b91505b6000851461166f57600a8561166c9190612896565b90505b5b8167ffffffffffffffff81111561168a57611689612838565b5b6040519080825280602002602001820160405280156116c357816020015b6116b06119fc565b8152602001906001900390816116a85790505b50935060005b8281101561170e576116db87836112dc565b8582815181106116ee576116ed612867565b5b6020026020010181905250818060010192505080806001019150506116c9565b5050505b5092915050565b6000600160009054906101000a900473ffffffffffffffffffffffffffffffffffffffff1673ffffffffffffffffffffffffffffffffffffffff16633ec79193836040518263ffffffff1660e01b81526004016117769190612020565b6040805180830381865afa158015611792573d6000803e3d6000fd5b505050506040513d601f19601f820116820180604052508101906117b691906129cb565b600001519050919050565b60008060009054906101000a900473ffffffffffffffffffffffffffffffffffffffff1673ffffffffffffffffffffffffffffffffffffffff16633bdd5d81836040518263ffffffff1660e01b815260040161181d9190612020565b606060405180830381865afa15801561183a573d6000803e3d6000fd5b505050506040513d601f19601f8201168201806040525081019061185e9190612a5c565b604001519050919050565b600081600a6118789190612e44565b600a6118849190612896565b83101580156118ab575081600a61189b9190612e44565b6103e86118a89190612896565b83105b156118c4576064836118bd919061271c565b905061196f565b81600a6118d19190612e44565b6103e86118de9190612896565b8310158015611905575081600a6118f59190612e44565b6127106119029190612896565b83105b1561192b5760506103e88461191a919061271c565b6119249190612896565b905061196e565b81600a6119389190612e44565b6127106119459190612896565b831061196c5760326103e88461195b919061271c565b6119659190612896565b905061196d565b5b5b5b92915050565b6040518060400160405280600073ffffffffffffffffffffffffffffffffffffffff168152602001600067ffffffffffffffff1681525090565b6040518060600160405280600073ffffffffffffffffffffffffffffffffffffffff168152602001600073ffffffffffffffffffffffffffffffffffffffff168152602001600081525090565b60405180610140016040528060006001811115611a1c57611a1b6120df565b5b815260200160006005811115611a3557611a346120df565b5b815260200160007effffffffffffffffffffffffffffffffffffffffffffffffffffffffffffff1916815260200160007effffffffffffffffffffffffffffffffffffffffffffffffffffffffffffff19168152602001600073ffffffffffffffffffffffffffffffffffffffff168152602001600073ffffffffffffffffffffffffffffffffffffffff168152602001600067ffffffffffffffff1681526020016000815260200160008152602001600081525090565b6000604051905090565b600080fd5b600080fd5b6000819050919050565b611b1481611b01565b8114611b1f57600080fd5b50565b600081359050611b3181611b0b565b92915050565b600073ffffffffffffffffffffffffffffffffffffffff82169050919050565b6000611b6282611b37565b9050919050565b611b7281611b57565b8114611b7d57600080fd5b50565b600081359050611b8f81611b69565b92915050565b600061ffff82169050919050565b611bac81611b95565b8114611bb757600080fd5b50565b600081359050611bc981611ba3565b92915050565b600080600060608486031215611be857611be7611af7565b5b6000611bf686828701611b22565b9350506020611c0786828701611b80565b9250506040611c1886828701611bba565b9150509250925092565b600081519050919050565b600082825260208201905092915050565b6000819050602082019050919050565b611c5781611b01565b82525050565b6000611c698383611c4e565b60208301905092915050565b6000602082019050919050565b6000611c8d82611c22565b611c978185611c2d565b9350611ca283611c3e565b8060005b83811015611cd3578151611cba8882611c5d565b9750611cc583611c75565b925050600181019050611ca6565b5085935050505092915050565b60006020820190508181036000830152611cfa8184611c82565b905092915050565b600060208284031215611d1857611d17611af7565b5b6000611d2684828501611b22565b91505092915050565b600081519050919050565b600082825260208201905092915050565b6000819050602082019050919050565b611d6481611b57565b82525050565b600067ffffffffffffffff82169050919050565b611d8781611d6a565b82525050565b604082016000820151611da36000850182611d5b565b506020820151611db66020850182611d7e565b50505050565b6000611dc88383611d8d565b60408301905092915050565b6000602082019050919050565b6000611dec82611d2f565b611df68185611d3a565b9350611e0183611d4b565b8060005b83811015611e32578151611e198882611dbc565b9750611e2483611dd4565b925050600181019050611e05565b5085935050505092915050565b600081519050919050565b600082825260208201905092915050565b6000819050602082019050919050565b606082016000820151611e816000850182611d5b565b506020820151611e946020850182611d5b565b506040820151611ea76040850182611c4e565b50505050565b6000611eb98383611e6b565b60608301905092915050565b6000602082019050919050565b6000611edd82611e3f565b611ee78185611e4a565b9350611ef283611e5b565b8060005b83811015611f23578151611f0a8882611ead565b9750611f1583611ec5565b925050600181019050611ef6565b5085935050505092915050565b60006040820190508181036000830152611f4a8185611de1565b90508181036020830152611f5e8184611ed2565b90509392505050565b611f7081611b57565b82525050565b6000602082019050611f8b6000830184611f67565b92915050565b60008060408385031215611fa857611fa7611af7565b5b6000611fb685828601611b80565b9250506020611fc785828601611b22565b9150509250929050565b60008060408385031215611fe857611fe7611af7565b5b6000611ff685828601611b80565b925050602061200785828601611b80565b9150509250929050565b61201a81611b01565b82525050565b60006020820190506120356000830184612011565b92915050565b60006020828403121561205157612050611af7565b5b600061205f84828501611b80565b91505092915050565b600060ff82169050919050565b61207e81612068565b82525050565b60006020820190506120996000830184612075565b92915050565b600080604083850312156120b6576120b5611af7565b5b60006120c485828601611b22565b92505060206120d585828601611b22565b9150509250929050565b7f4e487b7100000000000000000000000000000000000000000000000000000000600052602160045260246000fd5b6006811061211f5761211e6120df565b5b50565b60008190506121308261210e565b919050565b600061214082612122565b9050919050565b61215081612135565b82525050565b600060208201905061216b6000830184612147565b92915050565b60028110612182576121816120df565b5b50565b600081905061219382612171565b919050565b60006121a382612185565b9050919050565b6121b381612198565b82525050565b600681106121ca576121c96120df565b5b50565b60008190506121db826121b9565b919050565b60006121eb826121cd565b9050919050565b6121fb816121e0565b82525050565b60007fff0000000000000000000000000000000000000000000000000000000000000082169050919050565b61223681612201565b82525050565b6101408201600082015161225360008501826121aa565b50602082015161226660208501826121f2565b506040820151612279604085018261222d565b50606082015161228c606085018261222d565b50608082015161229f6080850182611d5b565b5060a08201516122b260a0850182611d5b565b5060c08201516122c560c0850182611d7e565b5060e08201516122d860e0850182611c4e565b506101008201516122ed610100850182611c4e565b50610120820151612302610120850182611c4e565b50505050565b60006101408201905061231e600083018461223c565b92915050565b600080fd5b600080fd5b600080fd5b60008083601f84011261234957612348612324565b5b8235905067ffffffffffffffff81111561236657612365612329565b5b6020830191508360208202830111156123825761238161232e565b5b9250929050565b6000806000604084860312156123a2576123a1611af7565b5b60006123b086828701611b22565b935050602084013567ffffffffffffffff8111156123d1576123d0611afc565b5b6123dd86828701612333565b92509250509250925092565b600081519050919050565b600082825260208201905092915050565b6000819050602082019050919050565b61241e81612135565b82525050565b60006124308383612415565b60208301905092915050565b6000602082019050919050565b6000612454826123e9565b61245e81856123f4565b935061246983612405565b8060005b8381101561249a5781516124818882612424565b975061248c8361243c565b92505060018101905061246d565b5085935050505092915050565b600081519050919050565b600082825260208201905092915050565b6000819050602082019050919050565b610140820160008201516124ea60008501826121aa565b5060208201516124fd60208501826121f2565b506040820151612510604085018261222d565b506060820151612523606085018261222d565b5060808201516125366080850182611d5b565b5060a082015161254960a0850182611d5b565b5060c082015161255c60c0850182611d7e565b5060e082015161256f60e0850182611c4e565b50610100820151612584610100850182611c4e565b50610120820151612599610120850182611c4e565b50505050565b60006125ab83836124d3565b6101408301905092915050565b6000602082019050919050565b60006125d0826124a7565b6125da81856124b2565b93506125e5836124c3565b8060005b838110156126165781516125fd888261259f565b9750612608836125b8565b9250506001810190506125e9565b5085935050505092915050565b6000604082019050818103600083015261263d8185612449565b9050818103602083015261265181846125c5565b90509392505050565b6000602082019050818103600083015261267481846125c5565b905092915050565b60008151905061268b81611b0b565b92915050565b6000602082840312156126a7576126a6611af7565b5b60006126b58482850161267c565b91505092915050565b7f4e487b7100000000000000000000000000000000000000000000000000000000600052601260045260246000fd5b7f4e487b7100000000000000000000000000000000000000000000000000000000600052601160045260246000fd5b600061272782611b01565b915061273283611b01565b925082612742576127416126be565b5b828204905092915050565b600082825260208201905092915050565b7f5061676520696e646578206f766572666c6f7700000000000000000000000000600082015250565b600061279460138361274d565b915061279f8261275e565b602082019050919050565b600060208201905081810360008301526127c381612787565b9050919050565b60006127d582611b01565b91506127e083611b01565b9250826127f0576127ef6126be565b5b828206905092915050565b600061280682611b95565b915061281183611b95565b925082820261281f81611b95565b9150808214612831576128306126ed565b5b5092915050565b7f4e487b7100000000000000000000000000000000000000000000000000000000600052604160045260246000fd5b7f4e487b7100000000000000000000000000000000000000000000000000000000600052603260045260246000fd5b60006128a182611b01565b91506128ac83611b01565b92508282026128ba81611b01565b915082820484148315176128d1576128d06126ed565b5b5092915050565b600080fd5b6000601f19601f8301169050919050565b6128f7826128dd565b810181811067ffffffffffffffff8211171561291657612915612838565b5b80604052505050565b6000612929611aed565b905061293582826128ee565b919050565b60008151905061294981611b69565b92915050565b61295881611d6a565b811461296357600080fd5b50565b6000815190506129758161294f565b92915050565b600060408284031215612991576129906128d8565b5b61299b604061291f565b905060006129ab8482850161293a565b60008301525060206129bf84828501612966565b60208301525092915050565b6000604082840312156129e1576129e0611af7565b5b60006129ef8482850161297b565b91505092915050565b600060608284031215612a0e57612a0d6128d8565b5b612a18606061291f565b90506000612a288482850161293a565b6000830152506020612a3c8482850161293a565b6020830152506040612a508482850161267c565b60408301525092915050565b600060608284031215612a7257612a71611af7565b5b6000612a80848285016129f8565b91505092915050565b6000604082019050612a9e6000830185611f67565b612aab6020830184612011565b9392505050565b612abb81612068565b8114612ac657600080fd5b50565b600081519050612ad881612ab2565b92915050565b600060208284031215612af457612af3611af7565b5b6000612b0284828501612ac9565b91505092915050565b7f4e6f6e206f776e65720000000000000000000000000000000000000000000000600082015250565b6000612b4160098361274d565b9150612b4c82612b0b565b602082019050919050565b60006020820190508181036000830152612b7081612b34565b9050919050565b60028110612b8457600080fd5b50565b600081519050612b9681612b77565b92915050565b60068110612ba957600080fd5b50565b600081519050612bbb81612b9c565b92915050565b612bca81612201565b8114612bd557600080fd5b50565b600081519050612be781612bc1565b92915050565b60006101408284031215612c0457612c036128d8565b5b612c0f61014061291f565b90506000612c1f84828501612b87565b6000830152506020612c3384828501612bac565b6020830152506040612c4784828501612bd8565b6040830152506060612c5b84828501612bd8565b6060830152506080612c6f8482850161293a565b60808301525060a0612c838482850161293a565b60a08301525060c0612c9784828501612966565b60c08301525060e0612cab8482850161267c565b60e083015250610100612cc08482850161267c565b61010083015250610120612cd68482850161267c565b6101208301525092915050565b60006101408284031215612cfa57612cf9611af7565b5b6000612d0884828501612bed565b91505092915050565b60008160011c9050919050565b6000808291508390505b6001851115612d6857808604811115612d4457612d436126ed565b5b6001851615612d535780820291505b8081029050612d6185612d11565b9450612d28565b94509492505050565b600082612d815760019050612e3d565b81612d8f5760009050612e3d565b8160018114612da55760028114612daf57612dde565b6001915050612e3d565b60ff841115612dc157612dc06126ed565b5b8360020a915084821115612dd857612dd76126ed565b5b50612e3d565b5060208310610133831016604e8410600b8410161715612e135782820a905083811115612e0e57612e0d6126ed565b5b612e3d565b612e208484846001612d1e565b92509050818404811115612e3757612e366126ed565b5b81810290505b9392505050565b6000612e4f82611b01565b9150612e5a83612068565b9250612e877fffffffffffffffffffffffffffffffffffffffffffffffffffffffffffffffff8484612d71565b90509291505056fea2646970667358221220420d7b19e16eb5b48d6ff206d1f593a27955a18662d8cbbaeb47f4111989b0e964736f6c63430008170033",
  "linkReferences": {},
  "deployedLinkReferences": {}
}