{
  "_format": "hh-sol-artifact-1",
  "contractName": "SimpleFactory",
  "sourceName": "contracts/core/SimpleFactory.sol",
  "abi": [
    {
      "inputs": [
        {
          "internalType": "address",
          "name": "_governance",
          "type": "address"
        }
      ],
      "stateMutability": "nonpayable",
      "type": "constructor"
    },
    {
      "anonymous": false,
      "inputs": [
        {
          "indexed": true,
          "internalType": "uint256",
          "name": "id",
          "type": "uint256"
        },
        {
          "indexed": false,
          "internalType": "address",
          "name": "market",
          "type": "address"
        }
      ],
      "name": "CreateMarket",
      "type": "event"
    },
    {
      "inputs": [],
      "name": "createMarket",
      "outputs": [],
      "stateMutability": "nonpayable",
      "type": "function"
    },
    {
      "inputs": [
        {
          "internalType": "uint256",
          "name": "id",
          "type": "uint256"
        }
      ],
      "name": "getMarketInfo",
      "outputs": [
        {
          "components": [
            {
              "internalType": "address",
              "name": "market",
              "type": "address"
            },
            {
              "internalType": "uint64",
              "name": "createTime",
              "type": "uint64"
            }
          ],
          "internalType": "struct ISimpleFactory.MarketInfo",
          "name": "",
          "type": "tuple"
        }
      ],
      "stateMutability": "view",
      "type": "function"
    },
    {
      "inputs": [],
      "name": "marketId",
      "outputs": [
        {
          "internalType": "uint256",
          "name": "",
          "type": "uint256"
        }
      ],
      "stateMutability": "view",
      "type": "function"
    }
  ],
  "bytecode": "0x608060405234801561001057600080fd5b5060405161466c38038061466c833981810160405281019061003291906100dc565b80600160006101000a81548173ffffffffffffffffffffffffffffffffffffffff021916908373ffffffffffffffffffffffffffffffffffffffff16021790555050610109565b600080fd5b600073ffffffffffffffffffffffffffffffffffffffff82169050919050565b60006100a98261007e565b9050919050565b6100b98161009e565b81146100c457600080fd5b50565b6000815190506100d6816100b0565b92915050565b6000602082840312156100f2576100f1610079565b5b6000610100848285016100c7565b91505092915050565b614554806101186000396000f3fe608060405234801561001057600080fd5b50600436106100415760003560e01c80633ec79193146100465780636ed71ede14610076578063aea0e35f14610094575b600080fd5b610060600480360381019061005b9190610486565b61009e565b60405161006d9190610546565b60405180910390f35b61007e610153565b60405161008b9190610570565b60405180910390f35b61009c610159565b005b6100a6610404565b600260008381526020019081526020016000206040518060400160405290816000820160009054906101000a900473ffffffffffffffffffffffffffffffffffffffff1673ffffffffffffffffffffffffffffffffffffffff1673ffffffffffffffffffffffffffffffffffffffff1681526020016000820160149054906101000a900467ffffffffffffffff1667ffffffffffffffff1667ffffffffffffffff16815250509050919050565b60005481565b6000600160009054906101000a900473ffffffffffffffffffffffffffffffffffffffff1673ffffffffffffffffffffffffffffffffffffffff1663481c6a756040518163ffffffff1660e01b8152600401602060405180830381865afa1580156101c8573d6000803e3d6000fd5b505050506040513d601f19601f820116820180604052508101906101ec91906105b7565b90508073ffffffffffffffffffffffffffffffffffffffff163373ffffffffffffffffffffffffffffffffffffffff161461022657600080fd5b60008054424660405160200161023e93929190610605565b60405160208183030381529060405280519060200120600160009054906101000a900473ffffffffffffffffffffffffffffffffffffffff166000546040516102869061043e565b610291929190610651565b8190604051809103906000f59050801580156102b1573d6000803e3d6000fd5b50905060405180604001604052808273ffffffffffffffffffffffffffffffffffffffff1681526020014267ffffffffffffffff16815250600260008054815260200190815260200160002060008201518160000160006101000a81548173ffffffffffffffffffffffffffffffffffffffff021916908373ffffffffffffffffffffffffffffffffffffffff16021790555060208201518160000160146101000a81548167ffffffffffffffff021916908367ffffffffffffffff1602179055509050506000547f9fbe2509b0780fcf4162c48a3a9542f3481cc0454f54a90da428a3b5ec8f9e58826040516103a8919061067a565b60405180910390a26000808154809291906103c2906106c4565b9190505550600073ffffffffffffffffffffffffffffffffffffffff168173ffffffffffffffffffffffffffffffffffffffff160361040057600080fd5b5050565b6040518060400160405280600073ffffffffffffffffffffffffffffffffffffffff168152602001600067ffffffffffffffff1681525090565b613e128061070d83390190565b600080fd5b6000819050919050565b61046381610450565b811461046e57600080fd5b50565b6000813590506104808161045a565b92915050565b60006020828403121561049c5761049b61044b565b5b60006104aa84828501610471565b91505092915050565b600073ffffffffffffffffffffffffffffffffffffffff82169050919050565b60006104de826104b3565b9050919050565b6104ee816104d3565b82525050565b600067ffffffffffffffff82169050919050565b610511816104f4565b82525050565b60408201600082015161052d60008501826104e5565b5060208201516105406020850182610508565b50505050565b600060408201905061055b6000830184610517565b92915050565b61056a81610450565b82525050565b60006020820190506105856000830184610561565b92915050565b610594816104d3565b811461059f57600080fd5b50565b6000815190506105b18161058b565b92915050565b6000602082840312156105cd576105cc61044b565b5b60006105db848285016105a2565b91505092915050565b6000819050919050565b6105ff6105fa82610450565b6105e4565b82525050565b600061061182866105ee565b60208201915061062182856105ee565b60208201915061063182846105ee565b602082019150819050949350505050565b61064b816104d3565b82525050565b60006040820190506106666000830185610642565b6106736020830184610561565b9392505050565b600060208201905061068f6000830184610642565b92915050565b7f4e487b7100000000000000000000000000000000000000000000000000000000600052601160045260246000fd5b60006106cf82610450565b91507fffffffffffffffffffffffffffffffffffffffffffffffffffffffffffffffff820361070157610700610695565b5b60018201905091905056fe60c0604052600160f81b7effffffffffffffffffffffffffffffffffffffffffffffffffffffffffffff191660a0907effffffffffffffffffffffffffffffffffffffffffffffffffffffffffffff19168152503480156200006057600080fd5b5060405162003e1238038062003e12833981810160405281019062000086919062000183565b600160008190555081600360006101000a81548173ffffffffffffffffffffffffffffffffffffffff021916908373ffffffffffffffffffffffffffffffffffffffff160217905550806001819055505050620001ca565b600080fd5b600073ffffffffffffffffffffffffffffffffffffffff82169050919050565b60006200011082620000e3565b9050919050565b620001228162000103565b81146200012e57600080fd5b50565b600081519050620001428162000117565b92915050565b6000819050919050565b6200015d8162000148565b81146200016957600080fd5b50565b6000815190506200017d8162000152565b92915050565b600080604083850312156200019d576200019c620000de565b5b6000620001ad8582860162000131565b9250506020620001c0858286016200016c565b9150509250929050565b60805160a051613bdc6200023660003960008181610bdb01528181610db201528181610ff5015281816111cd0152818161220c015261245a015260008181610b2901528181610d0001528181610f430152818161111b0152818161215a01526123a80152613bdc6000f3fe608060405234801561001057600080fd5b50600436106100f55760003560e01c80635aa6e67511610097578063d311636b11610066578063d311636b1461025c578063d9a716061461028c578063db7fd9e6146102bc578063e860b7ee146102ec576100f5565b80635aa6e675146101c2578063664375a1146101e0578063a7f698f014610210578063acd836ee14610240576100f5565b806337c3f2f9116100d357806337c3f2f9146101505780633f4899141461016e57806340e58ee51461018a57806342647a14146101a6576100f5565b8063111ac642146100fa578063163de5e514610116578063278ecde114610134575b600080fd5b610114600480360381019061010f9190612f4f565b610308565b005b61011e610739565b60405161012b9190612f9e565b60405180910390f35b61014e60048036038101906101499190612fb9565b61073f565b005b6101586109a5565b6040516101659190612f9e565b60405180910390f35b61018860048036038101906101839190612f4f565b6109ab565b005b6101a4600480360381019061019f9190612fb9565b611341565b005b6101c060048036038101906101bb9190613026565b6115db565b005b6101ca611965565b6040516101d791906130ba565b60405180910390f35b6101fa60048036038101906101f59190613101565b61198b565b6040516102079190612f9e565b60405180910390f35b61022a60048036038101906102259190613101565b6119da565b6040516102379190612f9e565b60405180910390f35b61025a60048036038101906102559190612fb9565b611a29565b005b61027660048036038101906102719190612fb9565b611d01565b6040516102839190613321565b60405180910390f35b6102a660048036038101906102a1919061333d565b611f57565b6040516102b39190612f9e565b60405180910390f35b6102d660048036038101906102d1919061333d565b611fc0565b6040516102e39190612f9e565b60405180910390f35b61030660048036038101906103019190612fb9565b612029565b005b6103106125b8565b6103186125fe565b60008060046000848152602001908152602001600020600301549050600061033e61266b565b60200151905060006004600086815260200190815260200160002060010160009054906101000a900473ffffffffffffffffffffffffffffffffffffffff1690508073ffffffffffffffffffffffffffffffffffffffff163373ffffffffffffffffffffffffffffffffffffffff16146106c257600060018111156103c6576103c561312e565b5b8660018111156103d9576103d861312e565b5b14801561042d5750600260058111156103f5576103f461312e565b5b6004600087815260200190815260200160002060000160019054906101000a900460ff16600581111561042b5761042a61312e565b5b145b156104bf57600560003373ffffffffffffffffffffffffffffffffffffffff1673ffffffffffffffffffffffffffffffffffffffff1681526020019081526020016000206001018590806001815401808255809150506001900390600052602060002001600090919091909150556104ad836104a884612716565b6127cb565b846104b891906133ac565b93506105e8565b6001808111156104d2576104d161312e565b5b8660018111156104e5576104e461312e565b5b1480156105395750600160058111156105015761050061312e565b5b6004600087815260200190815260200160002060000160019054906101000a900460ff1660058111156105375761053661312e565b5b145b156105ac57600560003373ffffffffffffffffffffffffffffffffffffffff1673ffffffffffffffffffffffffffffffffffffffff1681526020019081526020016000206000018590806001815401808255809150506001900390600052602060002001600090919091909150556105e7565b6040517f8c3685b80000000000000000000000000000000000000000000000000000000081526004016105de9061343d565b60405180910390fd5b5b60036004600087815260200190815260200160002060000160016101000a81548160ff021916908360058111156106225761062161312e565b5b0217905550336004600087815260200190815260200160002060000160046101000a81548173ffffffffffffffffffffffffffffffffffffffff021916908373ffffffffffffffffffffffffffffffffffffffff1602179055506106a93330858573ffffffffffffffffffffffffffffffffffffffff166128d7909392919063ffffffff16565b60008411156106bd576106bc8285612959565b5b6106f4565b6040517ffd684c3b00000000000000000000000000000000000000000000000000000000815260040160405180910390fd5b6106fc612a20565b847f2971ccb9e259a25cee18538d99dfd8612e404ccc00315b94d3f4d95f5819659f60405160405180910390a250505050610735612ab3565b5050565b60025481565b6107476125b8565b61074f612abd565b60006004600083815260200190815260200160002060010160009054906101000a900473ffffffffffffffffffffffffffffffffffffffff1690508073ffffffffffffffffffffffffffffffffffffffff163373ffffffffffffffffffffffffffffffffffffffff160361096757600160058111156107d1576107d061312e565b5b6004600084815260200190815260200160002060000160019054906101000a900460ff1660058111156108075761080661312e565b5b148061085a5750600260058111156108225761082161312e565b5b6004600084815260200190815260200160002060000160019054906101000a900460ff1660058111156108585761085761312e565b5b145b1561092757600060046000848152602001908152602001600020600301549050600061088461266b565b602001519050600480600086815260200190815260200160002060000160016101000a81548160ff021916908360058111156108c3576108c261312e565b5b02179055506108f383838373ffffffffffffffffffffffffffffffffffffffff16612b2c9092919063ffffffff16565b837f935c9ad2f1fda9d7eae0d2a512f1521cb7190ee06165414e722366a65975fb6b60405160405180910390a25050610962565b6040517f8c3685b80000000000000000000000000000000000000000000000000000000081526004016109599061343d565b60405180910390fd5b610999565b6040517ffd684c3b00000000000000000000000000000000000000000000000000000000815260040160405180910390fd5b506109a2612ab3565b50565b60015481565b6109b36125b8565b6109bb612abd565b60006109c561266b565b60000151905060006109d561266b565b60200151905060006109e682612716565b905060008060006004600088815260200190815260200160002060010160009054906101000a900473ffffffffffffffffffffffffffffffffffffffff1673ffffffffffffffffffffffffffffffffffffffff163373ffffffffffffffffffffffffffffffffffffffff1603610e075760006001811115610a6a57610a6961312e565b5b886001811115610a7d57610a7c61312e565b5b148015610ad05750876001811115610a9857610a9761312e565b5b6004600089815260200190815260200160002060000160009054906101000a900460ff166001811115610ace57610acd61312e565b5b145b8015610b225750600580811115610aea57610ae961312e565b5b6004600089815260200190815260200160002060000160019054906101000a900460ff166005811115610b2057610b1f61312e565b5b145b15610c2e577f00000000000000000000000000000000000000000000000000000000000000007effffffffffffffffffffffffffffffffffffffffffffffffffffffffffffff19166004600089815260200190815260200160002060000160029054906101000a900460f81b7effffffffffffffffffffffffffffffffffffffffffffffffffffffffffffff191603610c2957600460008881526020019081526020016000206002015482610bd791906133ac565b91507f00000000000000000000000000000000000000000000000000000000000000006004600089815260200190815260200160002060000160026101000a81548160ff021916908360f81c02179055505b610e02565b600180811115610c4157610c4061312e565b5b886001811115610c5457610c5361312e565b5b148015610ca75750876001811115610c6f57610c6e61312e565b5b6004600089815260200190815260200160002060000160009054906101000a900460ff166001811115610ca557610ca461312e565b5b145b8015610cf95750600580811115610cc157610cc061312e565b5b6004600089815260200190815260200160002060000160019054906101000a900460ff166005811115610cf757610cf661312e565b5b145b15610e01577f00000000000000000000000000000000000000000000000000000000000000007effffffffffffffffffffffffffffffffffffffffffffffffffffffffffffff19166004600089815260200190815260200160002060000160029054906101000a900460f81b7effffffffffffffffffffffffffffffffffffffffffffffffffffffffffffff191603610e0057600460008881526020019081526020016000206003015481610dae91906133ac565b90507f00000000000000000000000000000000000000000000000000000000000000006004600089815260200190815260200160002060000160026101000a81548160ff021916908360f81c02179055505b5b5b611255565b6004600088815260200190815260200160002060000160049054906101000a900473ffffffffffffffffffffffffffffffffffffffff1673ffffffffffffffffffffffffffffffffffffffff163373ffffffffffffffffffffffffffffffffffffffff16036112225760006001811115610e8457610e8361312e565b5b886001811115610e9757610e9661312e565b5b148015610eea5750600180811115610eb257610eb161312e565b5b6004600089815260200190815260200160002060000160009054906101000a900460ff166001811115610ee857610ee761312e565b5b145b8015610f3c5750600580811115610f0457610f0361312e565b5b6004600089815260200190815260200160002060000160019054906101000a900460ff166005811115610f3a57610f3961312e565b5b145b15611048577f00000000000000000000000000000000000000000000000000000000000000007effffffffffffffffffffffffffffffffffffffffffffffffffffffffffffff19166004600089815260200190815260200160002060000160039054906101000a900460f81b7effffffffffffffffffffffffffffffffffffffffffffffffffffffffffffff19160361104357600460008881526020019081526020016000206002015482610ff191906133ac565b91507f00000000000000000000000000000000000000000000000000000000000000006004600089815260200190815260200160002060000160036101000a81548160ff021916908360f81c02179055505b61121d565b60018081111561105b5761105a61312e565b5b88600181111561106e5761106d61312e565b5b1480156110c257506000600181111561108a5761108961312e565b5b6004600089815260200190815260200160002060000160009054906101000a900460ff1660018111156110c0576110bf61312e565b5b145b801561111457506005808111156110dc576110db61312e565b5b6004600089815260200190815260200160002060000160019054906101000a900460ff1660058111156111125761111161312e565b5b145b1561121c577f00000000000000000000000000000000000000000000000000000000000000007effffffffffffffffffffffffffffffffffffffffffffffffffffffffffffff19166004600089815260200190815260200160002060000160039054906101000a900460f81b7effffffffffffffffffffffffffffffffffffffffffffffffffffffffffffff19160361121b576004600088815260200190815260200160002060030154816111c991906133ac565b90507f00000000000000000000000000000000000000000000000000000000000000006004600089815260200190815260200160002060000160036101000a81548160ff021916908360f81c02179055505b5b5b611254565b6040517ffd684c3b00000000000000000000000000000000000000000000000000000000815260040160405180910390fd5b5b600082111561128a5761128933838873ffffffffffffffffffffffffffffffffffffffff16612b2c9092919063ffffffff16565b5b60008111156112f75761129d81856127cb565b836112a891906133ac565b92506112ec33846002846112bc919061345d565b6112c6919061349f565b8773ffffffffffffffffffffffffffffffffffffffff16612b2c9092919063ffffffff16565b6112f68584612959565b5b867ff1348619c58fcc584d50e6f7f2b67b9736ffe87746220e5b4127223f4be2f3f38960405161132791906134e2565b60405180910390a250505050505061133d612ab3565b5050565b6113496125b8565b6113516125fe565b60006004600083815260200190815260200160002060010160009054906101000a900473ffffffffffffffffffffffffffffffffffffffff1690508073ffffffffffffffffffffffffffffffffffffffff163373ffffffffffffffffffffffffffffffffffffffff160361159d57600160058111156113d3576113d261312e565b5b6004600084815260200190815260200160002060000160019054906101000a900460ff1660058111156114095761140861312e565b5b148061145c5750600260058111156114245761142361312e565b5b6004600084815260200190815260200160002060000160019054906101000a900460ff16600581111561145a5761145961312e565b5b145b1561155d57600060046000848152602001908152602001600020600301549050600061148661266b565b602001519050600480600086815260200190815260200160002060000160016101000a81548160ff021916908360058111156114c5576114c461312e565b5b021790555060006103e86005846114dc919061345d565b6114e6919061352c565b905061151e8482856114f8919061349f565b8473ffffffffffffffffffffffffffffffffffffffff16612b2c9092919063ffffffff16565b6115288282612959565b847f935c9ad2f1fda9d7eae0d2a512f1521cb7190ee06165414e722366a65975fb6b60405160405180910390a2505050611598565b6040517f8c3685b800000000000000000000000000000000000000000000000000000000815260040161158f9061343d565b60405180910390fd5b6115cf565b6040517ffd684c3b00000000000000000000000000000000000000000000000000000000815260040160405180910390fd5b506115d8612ab3565b50565b6115e36125b8565b6115eb6125fe565b600060018111156115ff576115fe61312e565b5b8360018111156116125761161161312e565b5b036116c857600160046000600254815260200190815260200160002060000160016101000a81548160ff021916908360058111156116535761165261312e565b5b0217905550600560003373ffffffffffffffffffffffffffffffffffffffff1673ffffffffffffffffffffffffffffffffffffffff1681526020019081526020016000206000016002549080600181540180825580915050600190039060005260206000200160009091909190915055611775565b600260046000600254815260200190815260200160002060000160016101000a81548160ff021916908360058111156117045761170361312e565b5b0217905550600560003373ffffffffffffffffffffffffffffffffffffffff1673ffffffffffffffffffffffffffffffffffffffff16815260200190815260200160002060010160025490806001815401808255809150506001900390600052602060002001600090919091909150555b600061177f61266b565b602001519050600061178f61266b565b60000151905060006117a083612716565b905060006117ad83612716565b905060006117bb8688612bab565b905060006117cb8385898b612bd9565b905083600a6117da919061369d565b600a6117e6919061345d565b821015611828576040517f08c379a000000000000000000000000000000000000000000000000000000000815260040161181f9061375a565b60405180910390fd5b6118553330848973ffffffffffffffffffffffffffffffffffffffff166128d7909392919063ffffffff16565b8860046000600254815260200190815260200160002060000160006101000a81548160ff021916908360018111156118905761188f61312e565b5b0217905550806004600060025481526020019081526020016000206002018190555081600460006002548152602001908152602001600020600301819055508660046000600254815260200190815260200160002060010160146101000a81548167ffffffffffffffff021916908367ffffffffffffffff160217905550611916612a20565b6002547f65de820fabc430dbd164d94967aa37694b2d6c943839f6b5cc8cf5ad84140b3d338360405161194a92919061377a565b60405180910390a2505050505050611960612ab3565b505050565b600360009054906101000a900473ffffffffffffffffffffffffffffffffffffffff1681565b6000600560008373ffffffffffffffffffffffffffffffffffffffff1673ffffffffffffffffffffffffffffffffffffffff168152602001908152602001600020600001805490509050919050565b6000600560008373ffffffffffffffffffffffffffffffffffffffff1673ffffffffffffffffffffffffffffffffffffffff168152602001908152602001600020600101805490509050919050565b611a316125b8565b6000611a3b61266b565b6040015190506000611a4b61266b565b600001519050600073ffffffffffffffffffffffffffffffffffffffff168173ffffffffffffffffffffffffffffffffffffffff1603611ac0576040517f08c379a0000000000000000000000000000000000000000000000000000000008152600401611ab7906137ef565b60405180910390fd5b60008214158015611adb5750611ad461266b565b6040015142105b611b1a576040517f08c379a0000000000000000000000000000000000000000000000000000000008152600401611b119061385b565b60405180910390fd5b60036005811115611b2e57611b2d61312e565b5b6004600085815260200190815260200160002060000160019054906101000a900460ff166005811115611b6457611b6361312e565b5b03611cf4576000600460008581526020019081526020016000206002015490506004600085815260200190815260200160002060010160009054906101000a900473ffffffffffffffffffffffffffffffffffffffff1673ffffffffffffffffffffffffffffffffffffffff163373ffffffffffffffffffffffffffffffffffffffff161480611c5557506004600085815260200190815260200160002060000160049054906101000a900473ffffffffffffffffffffffffffffffffffffffff1673ffffffffffffffffffffffffffffffffffffffff163373ffffffffffffffffffffffffffffffffffffffff16145b15611cf257611c8530828473ffffffffffffffffffffffffffffffffffffffff16612b2c9092919063ffffffff16565b60056004600086815260200190815260200160002060000160016101000a81548160ff02191690836005811115611cbf57611cbe61312e565b5b0217905550837fc647765f908f57dd2d03881b8625729294140abe6635d20bb6bf2d142988ca7f60405160405180910390a25b505b5050611cfe612ab3565b50565b611d09612da7565b60046000838152602001908152602001600020604051806101400160405290816000820160009054906101000a900460ff166001811115611d4d57611d4c61312e565b5b6001811115611d5f57611d5e61312e565b5b81526020016000820160019054906101000a900460ff166005811115611d8857611d8761312e565b5b6005811115611d9a57611d9961312e565b5b81526020016000820160029054906101000a900460f81b7effffffffffffffffffffffffffffffffffffffffffffffffffffffffffffff19167effffffffffffffffffffffffffffffffffffffffffffffffffffffffffffff191681526020016000820160039054906101000a900460f81b7effffffffffffffffffffffffffffffffffffffffffffffffffffffffffffff19167effffffffffffffffffffffffffffffffffffffffffffffffffffffffffffff191681526020016000820160049054906101000a900473ffffffffffffffffffffffffffffffffffffffff1673ffffffffffffffffffffffffffffffffffffffff1673ffffffffffffffffffffffffffffffffffffffff1681526020016001820160009054906101000a900473ffffffffffffffffffffffffffffffffffffffff1673ffffffffffffffffffffffffffffffffffffffff1673ffffffffffffffffffffffffffffffffffffffff1681526020016001820160149054906101000a900467ffffffffffffffff1667ffffffffffffffff1667ffffffffffffffff16815260200160028201548152602001600382015481526020016004820154815250509050919050565b6000600560008473ffffffffffffffffffffffffffffffffffffffff1673ffffffffffffffffffffffffffffffffffffffff1681526020019081526020016000206000018281548110611fad57611fac61387b565b5b9060005260206000200154905092915050565b6000600560008473ffffffffffffffffffffffffffffffffffffffff1673ffffffffffffffffffffffffffffffffffffffff16815260200190815260200160002060010182815481106120165761201561387b565b5b9060005260206000200154905092915050565b612031612abd565b600061203b61266b565b602001519050600061204c82612716565b90506000806004600086815260200190815260200160002060010160009054906101000a900473ffffffffffffffffffffffffffffffffffffffff1673ffffffffffffffffffffffffffffffffffffffff163373ffffffffffffffffffffffffffffffffffffffff16036122a057600360058111156120ce576120cd61312e565b5b6004600087815260200190815260200160002060000160019054906101000a900460ff1660058111156121045761210361312e565b5b0361229b576000600181111561211d5761211c61312e565b5b6004600087815260200190815260200160002060000160009054906101000a900460ff1660018111156121535761215261312e565b5b0361229a577f00000000000000000000000000000000000000000000000000000000000000007effffffffffffffffffffffffffffffffffffffffffffffffffffffffffffff19166004600087815260200190815260200160002060000160029054906101000a900460f81b7effffffffffffffffffffffffffffffffffffffffffffffffffffffffffffff19160361225e5760046000868152602001908152602001600020600301548161220891906133ac565b90507f00000000000000000000000000000000000000000000000000000000000000006004600087815260200190815260200160002060000160026101000a81548160ff021916908360f81c0217905550612299565b6040517f8c3685b80000000000000000000000000000000000000000000000000000000081526004016122909061343d565b60405180910390fd5b5b5b612521565b6004600086815260200190815260200160002060000160049054906101000a900473ffffffffffffffffffffffffffffffffffffffff1673ffffffffffffffffffffffffffffffffffffffff163373ffffffffffffffffffffffffffffffffffffffff16036124ee576003600581111561231d5761231c61312e565b5b6004600087815260200190815260200160002060000160019054906101000a900460ff1660058111156123535761235261312e565b5b036124e95760018081111561236b5761236a61312e565b5b6004600087815260200190815260200160002060000160009054906101000a900460ff1660018111156123a1576123a061312e565b5b036124e8577f00000000000000000000000000000000000000000000000000000000000000007effffffffffffffffffffffffffffffffffffffffffffffffffffffffffffff19166004600087815260200190815260200160002060000160039054906101000a900460f81b7effffffffffffffffffffffffffffffffffffffffffffffffffffffffffffff1916036124ac5760046000868152602001908152602001600020600301548161245691906133ac565b90507f00000000000000000000000000000000000000000000000000000000000000006004600087815260200190815260200160002060000160036101000a81548160ff021916908360f81c02179055506124e7565b6040517f8c3685b80000000000000000000000000000000000000000000000000000000081526004016124de9061343d565b60405180910390fd5b5b5b612520565b6040517ffd684c3b00000000000000000000000000000000000000000000000000000000815260040160405180910390fd5b5b60008111156125b15761253481846127cb565b8261253f91906133ac565b91506125833383600284612553919061345d565b61255d919061349f565b8673ffffffffffffffffffffffffffffffffffffffff16612b2c9092919063ffffffff16565b847fb6f11b8e70d6507c12a536403ebd11a8c0776e7d36697f3b4e278b691aa6ce1b60405160405180910390a25b5050505050565b6002600054036125f4576040517f3ee5aeb500000000000000000000000000000000000000000000000000000000815260040160405180910390fd5b6002600081905550565b600061260861266b565b6040015190506000811480612629575061a8c081612626919061349f565b42105b612668576040517f08c379a000000000000000000000000000000000000000000000000000000000815260040161265f9061385b565b60405180910390fd5b50565b612673612e98565b600360009054906101000a900473ffffffffffffffffffffffffffffffffffffffff1673ffffffffffffffffffffffffffffffffffffffff16633bdd5d816001546040518263ffffffff1660e01b81526004016126d09190612f9e565b606060405180830381865afa1580156126ed573d6000803e3d6000fd5b505050506040513d601f19601f8201168201806040525081019061271191906139c9565b905090565b60008073ffffffffffffffffffffffffffffffffffffffff168273ffffffffffffffffffffffffffffffffffffffff160361275457600090506127c6565b8173ffffffffffffffffffffffffffffffffffffffff1663313ce5676040518163ffffffff1660e01b8152600401602060405180830381865afa15801561279f573d6000803e3d6000fd5b505050506040513d601f19601f820116820180604052508101906127c39190613a22565b90505b919050565b600081600a6127da919061369d565b600a6127e6919061345d565b831015801561280d575081600a6127fd919061369d565b6103e861280a919061345d565b83105b156128265760648361281f919061352c565b90506128d1565b81600a612833919061369d565b6103e8612840919061345d565b8310158015612867575081600a612857919061369d565b612710612864919061345d565b83105b1561288d5760506103e88461287c919061352c565b612886919061345d565b90506128d0565b81600a61289a919061369d565b6127106128a7919061345d565b83106128ce5760326103e8846128bd919061352c565b6128c7919061345d565b90506128cf565b5b5b5b92915050565b612953848573ffffffffffffffffffffffffffffffffffffffff166323b872dd86868660405160240161290c93929190613a4f565b604051602081830303815290604052915060e01b6020820180517bffffffffffffffffffffffffffffffffffffffffffffffffffffffff8381831617835250505050612d05565b50505050565b6000600360009054906101000a900473ffffffffffffffffffffffffffffffffffffffff1673ffffffffffffffffffffffffffffffffffffffff166202eab76040518163ffffffff1660e01b81526004016040805180830381865afa1580156129c6573d6000803e3d6000fd5b505050506040513d601f19601f820116820180604052508101906129ea9190613ad6565b9050612a1b8160000151838573ffffffffffffffffffffffffffffffffffffffff16612b2c9092919063ffffffff16565b505050565b600360009054906101000a900473ffffffffffffffffffffffffffffffffffffffff1673ffffffffffffffffffffffffffffffffffffffff16633b4da69f336001546040518363ffffffff1660e01b8152600401612a7f92919061377a565b600060405180830381600087803b158015612a9957600080fd5b505af1158015612aad573d6000803e3d6000fd5b50505050565b6001600081905550565b6000612ac761266b565b60400151905060008114158015612aea575061a8c081612ae791906133ac565b42115b612b29576040517f08c379a0000000000000000000000000000000000000000000000000000000008152600401612b209061385b565b60405180910390fd5b50565b612ba6838473ffffffffffffffffffffffffffffffffffffffff1663a9059cbb8585604051602401612b5f92919061377a565b604051602081830303815290604052915060e01b6020820180517bffffffffffffffffffffffffffffffffffffffffffffffffffffffff8381831617835250505050612d05565b505050565b6000620f42408284612bbd9190613b03565b612bc79190613b40565b67ffffffffffffffff16905092915050565b60008460ff168460ff16118015612bf4575060008560ff1614155b15612c46578484612c059190613b71565b600a612c11919061369d565b620f42408385612c219190613b03565b612c2b9190613b40565b67ffffffffffffffff16612c3f919061352c565b9050612cfd565b8460ff168460ff16108015612c5f575060008560ff1614155b15612cb1578385612c709190613b71565b600a612c7c919061369d565b620f42408385612c8c9190613b03565b612c969190613b40565b67ffffffffffffffff16612caa919061345d565b9050612cfc565b8460ff168460ff16148015612cca575060008560ff1614155b15612cfa57620f42408284612cdf9190613b03565b612ce99190613b40565b67ffffffffffffffff169050612cfb565b5b5b5b949350505050565b600080602060008451602086016000885af180612d28576040513d6000823e3d81fd5b3d925060005191505060008214612d43576001811415612d5f565b60008473ffffffffffffffffffffffffffffffffffffffff163b145b15612da157836040517f5274afe7000000000000000000000000000000000000000000000000000000008152600401612d9891906130ba565b60405180910390fd5b50505050565b60405180610140016040528060006001811115612dc757612dc661312e565b5b815260200160006005811115612de057612ddf61312e565b5b815260200160007effffffffffffffffffffffffffffffffffffffffffffffffffffffffffffff1916815260200160007effffffffffffffffffffffffffffffffffffffffffffffffffffffffffffff19168152602001600073ffffffffffffffffffffffffffffffffffffffff168152602001600073ffffffffffffffffffffffffffffffffffffffff168152602001600067ffffffffffffffff1681526020016000815260200160008152602001600081525090565b6040518060600160405280600073ffffffffffffffffffffffffffffffffffffffff168152602001600073ffffffffffffffffffffffffffffffffffffffff168152602001600081525090565b6000604051905090565b600080fd5b60028110612f0157600080fd5b50565b600081359050612f1381612ef4565b92915050565b6000819050919050565b612f2c81612f19565b8114612f3757600080fd5b50565b600081359050612f4981612f23565b92915050565b60008060408385031215612f6657612f65612eef565b5b6000612f7485828601612f04565b9250506020612f8585828601612f3a565b9150509250929050565b612f9881612f19565b82525050565b6000602082019050612fb36000830184612f8f565b92915050565b600060208284031215612fcf57612fce612eef565b5b6000612fdd84828501612f3a565b91505092915050565b600067ffffffffffffffff82169050919050565b61300381612fe6565b811461300e57600080fd5b50565b60008135905061302081612ffa565b92915050565b60008060006060848603121561303f5761303e612eef565b5b600061304d86828701612f04565b935050602061305e86828701613011565b925050604061306f86828701613011565b9150509250925092565b600073ffffffffffffffffffffffffffffffffffffffff82169050919050565b60006130a482613079565b9050919050565b6130b481613099565b82525050565b60006020820190506130cf60008301846130ab565b92915050565b6130de81613099565b81146130e957600080fd5b50565b6000813590506130fb816130d5565b92915050565b60006020828403121561311757613116612eef565b5b6000613125848285016130ec565b91505092915050565b7f4e487b7100000000000000000000000000000000000000000000000000000000600052602160045260246000fd5b6002811061316e5761316d61312e565b5b50565b600081905061317f8261315d565b919050565b600061318f82613171565b9050919050565b61319f81613184565b82525050565b600681106131b6576131b561312e565b5b50565b60008190506131c7826131a5565b919050565b60006131d7826131b9565b9050919050565b6131e7816131cc565b82525050565b60007fff0000000000000000000000000000000000000000000000000000000000000082169050919050565b613222816131ed565b82525050565b61323181613099565b82525050565b61324081612fe6565b82525050565b61324f81612f19565b82525050565b6101408201600082015161326c6000850182613196565b50602082015161327f60208501826131de565b5060408201516132926040850182613219565b5060608201516132a56060850182613219565b5060808201516132b86080850182613228565b5060a08201516132cb60a0850182613228565b5060c08201516132de60c0850182613237565b5060e08201516132f160e0850182613246565b50610100820151613306610100850182613246565b5061012082015161331b610120850182613246565b50505050565b6000610140820190506133376000830184613255565b92915050565b6000806040838503121561335457613353612eef565b5b6000613362858286016130ec565b925050602061337385828601612f3a565b9150509250929050565b7f4e487b7100000000000000000000000000000000000000000000000000000000600052601160045260246000fd5b60006133b782612f19565b91506133c283612f19565b92508282019050808211156133da576133d961337d565b5b92915050565b600082825260208201905092915050565b7f496e76616c6964206f7264657200000000000000000000000000000000000000600082015250565b6000613427600d836133e0565b9150613432826133f1565b602082019050919050565b600060208201905081810360008301526134568161341a565b9050919050565b600061346882612f19565b915061347383612f19565b925082820261348181612f19565b915082820484148315176134985761349761337d565b5b5092915050565b60006134aa82612f19565b91506134b583612f19565b92508282039050818111156134cd576134cc61337d565b5b92915050565b6134dc81613184565b82525050565b60006020820190506134f760008301846134d3565b92915050565b7f4e487b7100000000000000000000000000000000000000000000000000000000600052601260045260246000fd5b600061353782612f19565b915061354283612f19565b925082613552576135516134fd565b5b828204905092915050565b60008160011c9050919050565b6000808291508390505b60018511156135b4578086048111156135905761358f61337d565b5b600185161561359f5780820291505b80810290506135ad8561355d565b9450613574565b94509492505050565b6000826135cd5760019050613689565b816135db5760009050613689565b81600181146135f157600281146135fb5761362a565b6001915050613689565b60ff84111561360d5761360c61337d565b5b8360020a9150848211156136245761362361337d565b5b50613689565b5060208310610133831016604e8410600b841016171561365f5782820a90508381111561365a5761365961337d565b5b613689565b61366c848484600161356a565b925090508184048111156136835761368261337d565b5b81810290505b9392505050565b600060ff82169050919050565b60006136a882612f19565b91506136b383613690565b92506136e07fffffffffffffffffffffffffffffffffffffffffffffffffffffffffffffffff84846135bd565b905092915050565b7f54686520746f74616c20636f6c6c61746572616c206d7573742062652067726560008201527f61746572207468616e206f7220657175616c20746f2031302400000000000000602082015250565b60006137446039836133e0565b915061374f826136e8565b604082019050919050565b6000602082019050818103600083015261377381613737565b9050919050565b600060408201905061378f60008301856130ab565b61379c6020830184612f8f565b9392505050565b7f746172676574546f6b656e000000000000000000000000000000000000000000600082015250565b60006137d9600b836133e0565b91506137e4826137a3565b602082019050919050565b60006020820190508181036000830152613808816137cc565b9050919050565b7f496e76616c69642074696d650000000000000000000000000000000000000000600082015250565b6000613845600c836133e0565b91506138508261380f565b602082019050919050565b6000602082019050818103600083015261387481613838565b9050919050565b7f4e487b7100000000000000000000000000000000000000000000000000000000600052603260045260246000fd5b600080fd5b6000601f19601f8301169050919050565b7f4e487b7100000000000000000000000000000000000000000000000000000000600052604160045260246000fd5b6138f8826138af565b810181811067ffffffffffffffff82111715613917576139166138c0565b5b80604052505050565b600061392a612ee5565b905061393682826138ef565b919050565b60008151905061394a816130d5565b92915050565b60008151905061395f81612f23565b92915050565b60006060828403121561397b5761397a6138aa565b5b6139856060613920565b905060006139958482850161393b565b60008301525060206139a98482850161393b565b60208301525060406139bd84828501613950565b60408301525092915050565b6000606082840312156139df576139de612eef565b5b60006139ed84828501613965565b91505092915050565b6139ff81613690565b8114613a0a57600080fd5b50565b600081519050613a1c816139f6565b92915050565b600060208284031215613a3857613a37612eef565b5b6000613a4684828501613a0d565b91505092915050565b6000606082019050613a6460008301866130ab565b613a7160208301856130ab565b613a7e6040830184612f8f565b949350505050565b600060408284031215613a9c57613a9b6138aa565b5b613aa66040613920565b90506000613ab68482850161393b565b6000830152506020613aca84828501613a0d565b60208301525092915050565b600060408284031215613aec57613aeb612eef565b5b6000613afa84828501613a86565b91505092915050565b6000613b0e82612fe6565b9150613b1983612fe6565b9250828202613b2781612fe6565b9150808214613b3957613b3861337d565b5b5092915050565b6000613b4b82612fe6565b9150613b5683612fe6565b925082613b6657613b656134fd565b5b828204905092915050565b6000613b7c82613690565b9150613b8783613690565b9250828203905060ff811115613ba057613b9f61337d565b5b9291505056fea264697066735822122044fa3e555c16a9aa51e009e4b43235c72643375bfa5fa588436124f1b7e1613464736f6c63430008170033a26469706673582212207321f3a58ec7136df414e165e258394b203919c6b9e1fee4f26361b236b52c6264736f6c63430008170033",
  "linkReferences": {},
  "deployedLinkReferences": {}
}